:100000000C947C000C9499000C9499000C94990029
:100010000C9499000C9499000C9499000C949900FC
:100020000C9499000C9499000C9499000C942F0155
:100030000C9499000C9499000C9499000C949900DC
:100040000C9499000C9499000C9499000C949900CC
:100050000C9499000C9499000C9499000C949900BC
:100060000C9499000C9499000C9499000C949900AC
:100070000C9499000C9499000C9499000C9499009C
:100080000C9499000C9499000C9499000C9499008C
:100090000C9499000C9499000C9499000C9499007C
:1000A0000C9499000C9499000C9499000C9499006C
:1000B0000C949900EF020E030E030E030E030E03C1
:1000C0000E03EF020E030E030E030E030E03C10216
:1000D000CF02CF02CF02CF02CF02CF02CF02CF0298
:1000E000CF020E030E030E030E030E030E030E03C8
:1000F000EF02EF02EF02EF0211241FBECFEFD8E0B4
:10010000DEBFCDBF11E0A0E0B1E0E8EBFEE002C051
:1001100005900D92A633B107D9F721E0A6E3B1E02F
:1001200001C01D92A535B207E1F70E94F4010C94BD
:100130005A070C940000E0ECF0E0908195FFFDCFB1
:100140008093C60080E090E0089580E48AB983E857
:1001500084BD81E080936E0020E030E048EC52E402
:100160006091490170914A0180914B0190914C013D
:100170000E94100320E030E04FE753E40E940204A5
:100180000E94820367BD84E085BD089584E08BB939
:100190008EE08AB9E1E8F0E088E0808380E3809334
:1001A000890082E080936F007894808308956623AD
:1001B00031F021E0FC01228388E08BB90895FC0135
:1001C00012821BB80895CF92DF92EF92FF920F93A5
:1001D0001F93CF93DF93EC018B017894C09045017E
:1001E000D0904601E0904701F0904801642F0E94B2
:1001F000D700A801110F660B770B4C0D5D1D6E1D0E
:100200007F1D4F5F5F4F6F4F7F4F809145019091F2
:100210004601A0914701B091480184179507A607B0
:10022000B70784F421E02B831BB88091450190919E
:100230004601A0914701B091480184179507A60790
:10024000B7078CF31B8284E08BB9F894DF91CF91D0
:100250001F910F91FF90EF90DF90CF9008951F9224
:100260000F920FB60F9211242F938F939F93AF93FA
:10027000BF938091450190914601A0914701B091B3
:1002800048010196A11DB11D80934501909346013F
:10029000A0934701B09348019BB180E189278BB9B6
:1002A0008091450190914601A0914701B09148018C
:1002B00081309449A543B74744F01092450110920C
:1002C00046011092470110924801BF91AF919F9152
:1002D0008F912F910F900FBE0F901F901895CF9276
:1002E000DF92EF92FF920F931F93CF93DF93CDB7DF
:1002F000DEB768970FB6F894DEBF0FBECDBF87E0BC
:10030000898386E08A8385E08B8384E08C8383E025
:100310008D8382E08E8381E08F83188680E1E0E028
:10032000F1E0DE01199601900D928A95E1F78E01B8
:100330000F5F1F4FA0E0B0E0CC24C394D12C7D010F
:10034000F801C601019002C0880F991F0A94E2F7D4
:100350008F01809585B98FE39CE90197F1F700C083
:10036000000023B130E0C9010D8002C0959587954A
:100370000A94E2F7BC016170772780FF0EC0FE018E
:10038000369681E090E0BC01A901019002C055952C
:1003900047950A94E2F740FD0FC0EE0CFF1CEE0CEF
:1003A000FF1CE1E0F0E0EC0FFD1FEE0EFF1EF70179
:1003B000E60FF71F808509C001968430910519F773
:1003C0001196A430B10509F0BACF68960FB6F8942B
:1003D000DEBF0FBECDBFDF91CF911F910F91FF9078
:1003E000EF90DF90CF900895CF93DF93CDB7DEB736
:1003F0002A970FB6F894DEBF0FBECDBFE7E3F1E05A
:100400008BE990E0918780871386128682E0838350
:100410001586148680EF84B9A1EBB0E08C918260E0
:100420008C9384E08093B3008C9187608C93F093DD
:100430005201E093510188E18093C10086E08093EE
:10044000C2001092C5008FEC8093C400E0ECF0E095
:10045000808185FFFDCF06EC10E086E1F801808306
:100460000F2EF1E1FF2EF02DF082CE0101960E94B9
:10047000A500CE0105960E94C6008091C0008CE0C8
:10048000F80180838FE097E20197F1F700C0000048
:10049000F08280E191E09F938F930E9475040F900A
:1004A0000F90CC24C394D12C00EC10E00F2EF6EC6E
:1004B0008F2E912CF02D0F2EFCE03F2EF02D0F2EC5
:1004C000F1E14F2EF02D0F2EFBE2AF2EF1E0BF2E0B
:1004D000F02D0F2EF9E16F2EF1E07F2EF02D6894B4
:1004E000552451F8B99BFECF43B133B193B123B139
:1004F00050E040955095BA0160717727432F50E046
:100500004095509540725527462B572B892F90E0E8
:100510008095909580749927842B952B30E02095B9
:10052000309520783327822B932B892B71F0809183
:1005300036018F5F80933601843048F0D0924E01AF
:10054000C0924D011092360102C010923601809186
:100550004D0190914E01892B09F460C010924E011B
:1005600010924D010E946F01E82EF12C90E0FC01E9
:10057000B397E232F10508F051C0E65AFF4F0C94F0
:100580006F0441E060E079E1CE0105960E94E3004E
:100590007F926F920E9475040F900F903FC0F801F8
:1005A000808185FFFCCFF40130828FE097E20197D4
:1005B000F1F700C000004082BF92AF920E94750424
:1005C000C7010E948B04FFE728E381E0F15020403F
:1005D0008040E1F700C000000F900F901FC0F801AD
:1005E000808185FFFCCFF40130828FE097E2019794
:1005F000F1F700C000004082BF92AF920E947504E4
:10060000C7010E948B04FFE728E381E0F1502040FE
:100610008040E1F700C000000F900F9057BA62CF02
:100620000E9424030C94C8030E94C10358F00E9446
:10063000BA0340F029F45F3F29F00C94B103511143
:100640000C94FC030C94B7030E94D90368F399231C
:10065000B1F3552391F3951B550BBB27AA276217BE
:100660007307840738F09F5F5F4F220F331F441FCB
:10067000AA1FA9F335D00E2E3AF0E0E832D09150FF
:100680005040E695001CCAF72BD0FE2F29D0660FEC
:10069000771F881FBB1F261737074807AB07B0E82F
:1006A00009F0BB0B802DBF01FF2793585F4F3AF035
:1006B0009E3F510578F00C94B1030C94FC035F3F0E
:1006C000E4F3983ED4F3869577956795B795F795BB
:1006D0009F5FC9F7880F911D9695879597F90895A3
:1006E000E1E0660F771F881FBB1F6217730784073F
:1006F000BA0720F0621B730B840BBA0BEE1F88F74E
:10070000E09508950E94E10388F09F5798F0B92F73
:100710009927B751B0F0E1F0660F771F881F991F36
:100720001AF0BA95C9F714C0B13091F00E94FB03DA
:10073000B1E008950C94FB03672F782F8827B85FEA
:1007400039F0B93FCCF3869577956795B395D9F78E
:100750003EF490958095709561957F4F8F4F9F4F98
:10076000089597F99F6780E870E060E008959FEF33
:1007700080EC089500240A94161617061806090638
:10078000089500240A941216130614060506089507
:10079000092E0394000C11F4882352F0BB0F40F48F
:1007A000BF2B11F460FF04C06F5F7F4F8F4F9F4FCF
:1007B000089557FD9058440F551F59F05F3F71F051
:1007C0004795880F97FB991F61F09F3F79F08795B8
:1007D0000895121613061406551FF2CF4695F1DF41
:1007E00008C0161617061806991FF1CF86957105D1
:1007F000610508940895E894BB2766277727CB0105
:1008000097F908950E9415040C94C8030E94BA0336
:1008100038F00E94C10320F0952311F00C94B1032D
:100820000C94B70311240C94FC030E94D90370F3B9
:10083000959FC1F3950F50E0551F629FF001729F85
:10084000BB27F00DB11D639FAA27F00DB11DAA1F94
:10085000649F6627B00DA11D661F829F2227B00DE1
:10086000A11D621F739FB00DA11D621F839FA00D6C
:10087000611D221F749F3327A00D611D231F849FBC
:10088000600D211D822F762F6A2F11249F57504013
:100890009AF0F1F088234AF0EE0FFF1FBB1F661F8E
:1008A000771F881F91505040A9F79E3F510580F057
:1008B0000C94B1030C94FC035F3FE4F3983ED4F333
:1008C000869577956795B795F795E7959F5FC1F7FB
:1008D000FE2B880F911D9695879597F90895EE0F39
:1008E000FF1F0590F491E02D0994A0E0B0E0EBE744
:1008F000F4E00C943307AE014B5F5F4FFA01619156
:100900007191AF0180915101909152010E94920426
:10091000E2E00C944F0760915101709152010E94E6
:1009200089060895ABE0B0E0E8E9F4E00C94230711
:100930006C017B018A01FC0117821682838181FF91
:10094000CCC1CE0101963C01F6019381F70193FDE4
:10095000859193FF81917F01882309F4BAC1853283
:1009600039F493FD859193FF81917F01853229F4BC
:10097000B60190E00E948906E7CF912C212C312C02
:10098000FFE1F315D8F08B3279F038F4803279F04A
:100990008332A1F4232D20611DC08D3261F080339C
:1009A00069F4232D216016C0832D8260382EE32D3B
:1009B000E4603E2E2AC0F32DF8601DC037FC2DC028
:1009C00020ED280F2A3040F08E32B9F436FC81C178
:1009D000232D2064322E19C036FE06C08AE0989E70
:1009E000200D1124922E11C0EAE02E9E200D11241C
:1009F000222EF32DF0623F2E08C08C3621F4832D79
:100A00008068382E02C0883641F4F70193FD859145
:100A100093FF81917F018111B3CF982F9F7D9554D2
:100A2000933028F40C5F1F4F9FE399830DC08336EA
:100A300031F0833771F0833509F059C021C0F801D6
:100A4000808189830E5F1F4F88248394912C5301EA
:100A500013C02801F2E04F0E511CF801A080B180B4
:100A600036FE03C0692D70E002C06FEF7FEFC50155
:100A70000E947E064C018201F32DFF773F2E16C0A7
:100A8000280122E0420E511CF801A080B18036FE00
:100A900003C0692D70E002C06FEF7FEFC5010E94B7
:100AA00073064C01F32DF0683F2E820133FC1BC00E
:100AB000822D90E088169906B0F4B60180E290E0AD
:100AC0000E9489062A94F4CFF50137FC859137FE00
:100AD00081915F01B60190E00E94890621102A945D
:100AE00021E0821A91088114910471F7E8C08436DC
:100AF00011F0893641F5F80137FE07C06081718138
:100B0000828193810C5F1F4F08C060817181072E25
:100B1000000C880B990B0E5F1F4FF32DFF763F2EB5
:100B200097FF09C090958095709561957F4F8F4F85
:100B30009F4FF0683F2E2AE030E0A3010E94C506D7
:100B4000882E861845C0853731F4232D2F7EB22E8E
:100B50002AE030E025C0932D997FB92E8F36C1F061
:100B600018F4883579F0B5C0803719F0883721F04E
:100B7000B0C0E92FE061BE2EB4FE0DC0FB2DF460C5
:100B8000BF2E09C034FE0AC0292F2660B22E06C02F
:100B900028E030E005C020E130E002C020E132E092
:100BA000F801B7FE07C060817181828193810C5F7B
:100BB0001F4F06C06081718180E090E00E5F1F4F83
:100BC000A3010E94C506882E8618FB2DFF773F2EB5
:100BD00036FE0DC0232D2E7FA22E891458F434FE2C
:100BE0000BC032FC09C0832D8E7EA82E05C0B82C08
:100BF000A32C03C0B82C01C0B92CA4FE0FC0FE0169
:100C0000E80DF11D8081803321F49A2D997EA92E63
:100C100009C0A2FE06C0B394B39404C08A2D86789E
:100C200009F0B394A3FC11C0A0FE06C0B21488F46E
:100C3000280C922C9B180EC0B21460F4B60180E20E
:100C400090E00E948906B394F7CFB21418F42B18E1
:100C500002C0982C212CA4FE10C0B60180E390E0C5
:100C60000E948906A2FE17C0A1FC03C088E790E09D
:100C700002C088E590E0B6010CC08A2D867859F054
:100C8000A1FE02C08BE201C080E2A7FC8DE2B601AA
:100C900090E00E948906891438F4B60180E390E060
:100CA0000E9489069A94F7CF8A94F301E80DF11D0A
:100CB0008081B60190E00E9489068110F5CF222044
:100CC00009F442CEB60180E290E00E9489062A949F
:100CD000F6CFF6018681978102C08FEF9FEF2B96AA
:100CE000E2E10C943F07FC01059061507040011057
:100CF000D8F7809590958E0F9F1F0895FC01615045
:100D0000704001900110D8F7809590958E0F9F1F2D
:100D100008950F931F93CF93DF93FB01238121FD50
:100D200003C08FEF9FEF2CC022FF16C04681578172
:100D3000248135814217530744F4A081B1819D017C
:100D40002F5F3F4F318320838C93268137812F5F24
:100D50003F4F3783268314C08B01EC01FB010084D5
:100D6000F185E02D0995892BE1F6D80116968D9134
:100D70009C911797019617969C938E931697CE0188
:100D8000DF91CF911F910F910895FA01AA27283082
:100D900051F1203181F1E8946F936E7F6E5F7F4F48
:100DA0008F4F9F4FAF4FB1E03ED0B4E03CD0670FC4
:100DB000781F891F9A1FA11D680F791F8A1F911D17
:100DC000A11D6A0F711D811D911DA11D20D009F467
:100DD00068943F912AE0269F11243019305D3193A9
:100DE000DEF6CF010895462F4770405D4193B3E092
:100DF0000FD0C9F7F6CF462F4F70405D4A3318F039
:100E0000495D31FD4052419302D0A9F7EACFB4E0E9
:100E1000A6959795879577956795BA95C9F70097A1
:100E20006105710508959B01AC010A2E0694579542
:100E3000479537952795BA95C9F7620F731F841F99
:100E4000951FA01D08952F923F924F925F926F922F
:100E50007F928F929F92AF92BF92CF92DF92EF924A
:100E6000FF920F931F93CF93DF93CDB7DEB7CA1BCB
:100E7000DB0B0FB6F894DEBF0FBECDBF09942A88F6
:100E8000398848885F846E847D848C849B84AA849E
:100E9000B984C884DF80EE80FD800C811B81AA812B
:100EA000B981CE0FD11D0FB6F894DEBF0FBECDBFF6
:080EB000ED010895F894FFCF55
:100EB8003132334134353642373839432A302344C6
:100EC80057656C636F6D652100526F746174696E4C
:100ED800672053746570706572210054686520231B
:060EE8002069733A0D00C1
:00000001FF
