:100000000C947C000C9499000C9499000C94990029
:100010000C9499000C9499000C9499000C949900FC
:100020000C9499000C9499000C9499000C94140170
:100030000C9499000C9499000C9499000C949900DC
:100040000C94C7000C9499000C9499000C9499009E
:100050000C9499000C9499000C9499000C949900BC
:100060000C9499000C9499000C9499000C949900AC
:100070000C9499000C9499000C9499000C9499009C
:100080000C9499000C9499000C9499000C9499008C
:100090000C9499000C9499000C9499000C9499007C
:1000A0000C9499000C9499000C9499000C9499006C
:1000B0000C949900120331033103310331033103EE
:1000C0003103120331033103310331033103E402FD
:1000D000F202F202F202F202F202F202F202F20280
:1000E000F2023103310331033103310331033103B0
:1000F000120312031203120311241FBECFEFD8E024
:10010000DEBFCDBF11E0A0E0B1E0EEEFFEE002C047
:1001100005900D92AE32B107D9F721E0AEE2B1E021
:1001200001C01D92AD34B207E1F70E942F020C947A
:100130007D070C940000E0ECF0E0908195FFFDCF8E
:100140008093C60080E090E0089580E48AB983E857
:1001500084BD81E080936E00609141017091420105
:10016000809143019091440120E030E048EC52E45A
:100170000E94330320E030E04FE753E40E9425045F
:100180000E94A50367BD789484E085BD08951F9201
:100190000F920FB60F9211242F933F934F935F93BB
:1001A0006F937F938F939F93AF93BF93EF93FF933F
:1001B000609141017091420180914301909144010D
:1001C00020E030E048EC52E40E94330320E030E0CD
:1001D0004FE753E40E9425040E94A50367BDFF91E9
:1001E000EF91BF91AF919F918F917F916F915F91AF
:1001F0004F913F912F910F900FBE0F901F90189528
:1002000084E08BB98EE08AB988E08093800080E337
:1002100090E0909389008093880082E080936F0043
:1002200078948093810008951F920F920FB60F92D9
:1002300011242F938F939F93AF93BF9380913D0190
:1002400090913E01A0913F01B09140010196A11D06
:10025000B11D80933D0190933E01A0933F01B09367
:1002600040019BB180E189278BB980913D0190913C
:100270003E01A0913F01B091400181309449A543D6
:10028000B74744F010923D0110923E0110923F0199
:1002900010924001BF91AF919F918F912F910F903C
:1002A0000FBE0F901F901895662331F021E0FC01DE
:1002B000228388E08BB90895FC0112821BB808954F
:1002C000CF92DF92EF92FF920F931F93CF93DF9322
:1002D000EC018B01C0903D01D0903E01E0903F01C8
:1002E000F0904001642F0E945401A801110F660B89
:1002F000770B4C0D5D1D6E1D7F1D4F5F5F4F6F4F68
:100300007F4F80913D0190913E01A0913F01B091BE
:10031000400184179507A607B70784F421E02B83D3
:100320001BB880913D0190913E01A0913F01B09199
:10033000400184179507A607B7078CF31B8284E05A
:100340008BB9DF91CF911F910F91FF90EF90DF90CC
:10035000CF900895CF92DF92EF92FF920F931F9369
:10036000CF93DF93CDB7DEB768970FB6F894DEBFB3
:100370000FBECDBF87E0898386E08A8385E08B83CB
:1003800084E08C8383E08D8382E08E8381E08F83A1
:10039000188680E1E0E0F1E0DE01199601900D920F
:1003A0008A95E1F78E010F5F1F4FA0E0B0E0CC24EB
:1003B000C394D12C7D01F801C601019002C0880FC1
:1003C000991F0A94E2F78F01809585B98FE39CE924
:1003D0000197F1F700C0000023B130E0C9010D80A2
:1003E00002C0959587950A94E2F7BC016170772762
:1003F00080FF0EC0FE01369681E090E0BC01A901AD
:10040000019002C0559547950A94E2F740FD0FC050
:10041000EE0CFF1CEE0CFF1CE1E0F0E0EC0FFD1F0A
:10042000EE0EFF1EF701E60FF71F808509C001964B
:100430008430910519F71196A430B10509F0BACFAF
:1004400068960FB6F894DEBF0FBECDBFDF91CF9197
:100450001F910F91FF90EF90DF90CF900895CF9371
:10046000DF93CDB7DEB72A970FB6F894DEBF0FBE85
:10047000CDBFEFE2F1E08BE990E0918780871386B2
:10048000128682E083831586148680EF84B9A1EBFF
:10049000B0E08C9182608C9384E08093B3008C9167
:1004A00087608C93F0934A01E093490188E180933F
:1004B000C10086E08093C2001092C5008FEC80934B
:1004C000C400E0ECF0E0808185FFFDCFE6ECF0E0D9
:1004D00086E1808381E18083CE0101960E94A500A0
:1004E000CE0105960E940001CC24C394D12C00ECCF
:1004F00010E00F2EF6EC8F2E912CF02D0F2EFCE03D
:100500003F2EF02D0F2EF1E14F2EF02D0F2EF2E2A7
:10051000AF2EF1E0BF2EF02D0F2EF0E16F2EF1E0A7
:100520007F2EF02D6894552451F8B99BFECF43B12E
:1005300033B193B123B150E040955095BA01607149
:100540007727432F50E04095509540725527462B12
:10055000572B892F90E08095909580749927842B54
:10056000952B30E02095309520783327822B932BE4
:10057000892B71F080912E018F5F80932E01843042
:1005800048F0D0924601C092450110922E0102C05F
:1005900010922E018091450190914601892B09F41A
:1005A00060C010924601109245010E94AA01E82EF7
:1005B000F12C90E0FC01B397E232F10508F051C054
:1005C000E65AFF4F0C94920441E060E079E1CE01DD
:1005D00005960E9460017F926F920E9498040F908E
:1005E0000F903FC0F801808185FFFCCFF40130827D
:1005F0008FE097E20197F1F700C000004082BF92C0
:10060000AF920E949804C7010E94AE04FFE728E35E
:1006100081E0F15020408040E1F700C000000F90E1
:100620000F901FC0F801808185FFFCCFF40130825C
:100630008FE097E20197F1F700C000004082BF927F
:10064000AF920E949804C7010E94AE04FFE728E31E
:1006500081E0F15020408040E1F700C000000F90A1
:100660000F9057BA62CF0E9447030C94EB030E948D
:10067000E40358F00E94DD0340F029F45F3F29F0C5
:100680000C94D40351110C941F040C94DA030E94AF
:10069000FC0368F39923B1F3552391F3951B550B94
:1006A000BB27AA2762177307840738F09F5F5F4F45
:1006B000220F331F441FAA1FA9F335D00E2E3AF084
:1006C000E0E832D091505040E695001CCAF72BD09C
:1006D000FE2F29D0660F771F881FBB1F26173707ED
:1006E0004807AB07B0E809F0BB0B802DBF01FF271F
:1006F00093585F4F3AF09E3F510578F00C94D40325
:100700000C941F045F3FE4F3983ED4F386957795ED
:100710006795B795F7959F5FC9F7880F911D9695D7
:10072000879597F90895E1E0660F771F881FBB1F33
:10073000621773078407BA0720F0621B730B840BE0
:10074000BA0BEE1F88F7E09508950E94040488F024
:100750009F5798F0B92F9927B751B0F0E1F0660F85
:10076000771F881F991F1AF0BA95C9F714C0B130C6
:1007700091F00E941E04B1E008950C941E04672FAE
:10078000782F8827B85F39F0B93FCCF386957795F5
:100790006795B395D9F73EF49095809570956195DE
:1007A0007F4F8F4F9F4F089597F99F6780E870E0C4
:1007B00060E008959FEF80EC089500240A941616D7
:1007C000170618060906089500240A94121613063F
:1007D000140605060895092E0394000C11F48823CD
:1007E00052F0BB0F40F4BF2B11F460FF04C06F5FE9
:1007F0007F4F8F4F9F4F089557FD9058440F551FBF
:1008000059F05F3F71F04795880F97FB991F61F092
:100810009F3F79F087950895121613061406551F09
:10082000F2CF4695F1DF08C0161617061806991F75
:10083000F1CF86957105610508940895E894BB276A
:1008400066277727CB0197F908950E9438040C9406
:10085000EB030E94DD0338F00E94E40320F09523AF
:1008600011F00C94D4030C94DA0311240C941F049B
:100870000E94FC0370F3959FC1F3950F50E0551F44
:10088000629FF001729FBB27F00DB11D639FAA27E5
:10089000F00DB11DAA1F649F6627B00DA11D661F34
:1008A000829F2227B00DA11D621F739FB00DA11D55
:1008B000621F839FA00D611D221F749F3327A00D0F
:1008C000611D231F849F600D211D822F762F6A2FAB
:1008D00011249F5750409AF0F1F088234AF0EE0F10
:1008E000FF1FBB1F661F771F881F91505040A9F73D
:1008F0009E3F510580F00C94D4030C941F045F3F7D
:10090000E4F3983ED4F3869577956795B795F79578
:10091000E7959F5FC1F7FE2B880F911D96958795F0
:1009200097F90895EE0FFF1F0590F491E02D0994BB
:10093000A0E0B0E0EEE9F4E00C945607AE014B5FA6
:100940005F4FFA0161917191AF01809149019091DE
:100950004A010E94B504E2E00C94720760914901DB
:1009600070914A010E94AC060895ABE0B0E0EBEB59
:10097000F4E00C9446076C017B018A01FC011782AC
:100980001682838181FFCCC1CE0101963C01F60124
:100990009381F70193FD859193FF81917F018823D6
:1009A00009F4BAC1853239F493FD859193FF8191A1
:1009B0007F01853229F4B60190E00E94AC06E7CFB2
:1009C000912C212C312CFFE1F315D8F08B3279F0EA
:1009D00038F4803279F08332A1F4232D20611DC0D8
:1009E0008D3261F0803369F4232D216016C0832D90
:1009F0008260382EE32DE4603E2E2AC0F32DF8608D
:100A00001DC037FC2DC020ED280F2A3040F08E325B
:100A1000B9F436FC81C1232D2064322E19C036FE74
:100A200006C08AE0989E200D1124922E11C0EAE0A3
:100A30002E9E200D1124222EF32DF0623F2E08C091
:100A40008C3621F4832D8068382E02C0883641F41C
:100A5000F70193FD859193FF81917F018111B3CFC0
:100A6000982F9F7D9554933028F40C5F1F4F9FE380
:100A700099830DC0833631F0833771F0833509F0E7
:100A800059C021C0F801808189830E5F1F4F8824DF
:100A90008394912C530113C02801F2E04F0E511C96
:100AA000F801A080B18036FE03C0692D70E002C05D
:100AB0006FEF7FEFC5010E94A1064C018201F32D6B
:100AC000FF773F2E16C0280122E0420E511CF8018C
:100AD000A080B18036FE03C0692D70E002C06FEFC8
:100AE0007FEFC5010E9496064C01F32DF0683F2E62
:100AF000820133FC1BC0822D90E088169906B0F469
:100B0000B60180E290E00E94AC062A94F4CFF50191
:100B100037FC859137FE81915F01B60190E00E941C
:100B2000AC0621102A9421E0821A910881149104C4
:100B300071F7E8C0843611F0893641F5F80137FEC7
:100B400007C060817181828193810C5F1F4F08C053
:100B500060817181072E000C880B990B0E5F1F4F6F
:100B6000F32DFF763F2E97FF09C0909580957095E5
:100B700061957F4F8F4F9F4FF0683F2E2AE030E006
:100B8000A3010E94E806882E861845C0853731F4F7
:100B9000232D2F7EB22E2AE030E025C0932D997FA1
:100BA000B92E8F36C1F018F4883579F0B5C080378A
:100BB00019F0883721F0B0C0E92FE061BE2EB4FEF5
:100BC0000DC0FB2DF460BF2E09C034FE0AC0292FD2
:100BD0002660B22E06C028E030E005C020E130E0FB
:100BE00002C020E132E0F801B7FE07C060817181E8
:100BF000828193810C5F1F4F06C06081718180E00C
:100C000090E00E5F1F4FA3010E94E806882E861811
:100C1000FB2DFF773F2E36FE0DC0232D2E7FA22EFB
:100C2000891458F434FE0BC032FC09C0832D8E7E2B
:100C3000A82E05C0B82CA32C03C0B82C01C0B92C19
:100C4000A4FE0FC0FE01E80DF11D8081803321F468
:100C50009A2D997EA92E09C0A2FE06C0B394B39422
:100C600004C08A2D867809F0B394A3FC11C0A0FEBD
:100C700006C0B21488F4280C922C9B180EC0B21433
:100C800060F4B60180E290E00E94AC06B394F7CF26
:100C9000B21418F42B1802C0982C212CA4FE10C0FA
:100CA000B60180E390E00E94AC06A2FE17C0A1FC52
:100CB00003C088E790E002C088E590E0B6010CC070
:100CC0008A2D867859F0A1FE02C08BE201C080E235
:100CD000A7FC8DE2B60190E00E94AC06891438F4BE
:100CE000B60180E390E00E94AC069A94F7CF8A9414
:100CF000F301E80DF11D8081B60190E00E94AC0681
:100D00008110F5CF222009F442CEB60180E290E0B6
:100D10000E94AC062A94F6CFF6018681978102C024
:100D20008FEF9FEF2B96E2E10C946207FC01059098
:100D3000615070400110D8F7809590958E0F9F1FDD
:100D40000895FC016150704001900110D8F7809522
:100D500090958E0F9F1F08950F931F93CF93DF934E
:100D6000FB01238121FD03C08FEF9FEF2CC022FFE9
:100D700016C046815781248135814217530744F4B8
:100D8000A081B1819D012F5F3F4F318320838C93E0
:100D9000268137812F5F3F4F3783268314C08B0115
:100DA000EC01FB010084F185E02D0995892BE1F62A
:100DB000D80116968D919C911797019617969C9342
:100DC0008E931697CE01DF91CF911F910F910895C9
:100DD000FA01AA27283051F1203181F1E8946F936C
:100DE0006E7F6E5F7F4F8F4F9F4FAF4FB1E03ED012
:100DF000B4E03CD0670F781F891F9A1FA11D680FB0
:100E0000791F8A1F911DA11D6A0F711D811D911DE2
:100E1000A11D20D009F468943F912AE0269F112457
:100E20003019305D3193DEF6CF010895462F4770BB
:100E3000405D4193B3E00FD0C9F7F6CF462F4F7016
:100E4000405D4A3318F0495D31FD4052419302D074
:100E5000A9F7EACFB4E0A69597958795779567951A
:100E6000BA95C9F700976105710508959B01AC011A
:100E70000A2E06945795479537952795BA95C9F741
:100E8000620F731F841F951FA01D08952F923F921C
:100E90004F925F926F927F928F929F92AF92BF928A
:100EA000CF92DF92EF92FF920F931F93CF93DF9336
:100EB000CDB7DEB7CA1BDB0B0FB6F894DEBF0FBE93
:100EC000CDBF09942A88398848885F846E847D84E0
:100ED0008C849B84AA84B984C884DF80EE80FD80E2
:100EE0000C811B81AA81B981CE0FD11D0FB6F89458
:0E0EF000DEBF0FBECDBFED010895F894FFCF19
:100EFE003132334134353642373839432A30234480
:100F0E00526F746174696E67205374657070657288
:0E0F1E00210054686520232069733A0D0000FD
:00000001FF
