S01600004175746F576972654375747465722E7372656367
S11300000C947C000C9499000C9499000C94990025
S11300100C9499000C9499000C9499000C949900F8
S11300200C9499000C9499000C9499000C943F0141
S11300300C9499000C9499000C9499000C949900D8
S11300400C94B0000C9499000C9499000C949900B1
S11300500C9499000C9499000C9499000C949900B8
S11300600C9499000C9499000C9499000C949900A8
S11300700C9499000C9499000C9499000C94990098
S11300800C9499000C9499000C9499000C94990088
S11300900C9499000C9499000C9499000C94990078
S11300A00C9499000C9499000C9499000C94990068
S11300B00C9499006203810381038103810381030A
S11300C08103620381038103810381038103C502E8
S11300D0EB02EB02EB02EB02EB02EB02EB020B0393
S11300E0420381038103810381038103810381032B
S11300F0620362036203620311241FBECFEFD8E0E0
S1130100DEBFCDBF11E0A0E0B1E0E2EEFCE002C052
S113011005900D92A634B107D9F721E0A6E4B1E029
S113012001C01D92A536B207E1F70E94ED010C94BF
S11301306F060C940000E0ECF0E0908195FFFDCF99
S11301408093C60080E090E00895569A83E884BDC9
S113015081E080936E0083E287BD84E085BD0895CD
S1130160189584E08BB98AB18C618AB9E1E8F0E032
S113017080818860808380E390E0909389008093FD
S1130180880082E080936F000895662331F021E0B7
S1130190FC01228388E08BB90895FC0112821BB80C
S11301A00895CF92DF92EF92FF920F931F93CF9314
S11301B0DF93EC018B011092C100E1E8F0E0808153
S11301C0826080838091550190915601A0915701DE
S11301D0B091580181309449A543B74744F0109237
S11301E05501109256011092570110925801C09077
S11301F05501D0905601E0905701F0905801642FBA
S1130200CE010E94C500A801110F660B770B4C0D9F
S11302105D1D6E1D7F1D4F5F5F4F6F4F7F4F809140
S1130220550190915601A0915701B091580184173E
S11302309507A607B70784F421E02B831BB88091A8
S1130240550190915601A0915701B091580184171E
S11302509507A607B7078CF31B8284E08BB9E1E806
S1130260F0E08081808388E18093C100DF91CF91A9
S11302701F910F91FF90EF90DF90CF9008951F9200
S11302800F920FB60F9211248F939F93AF93BF9346
S11302908091550190915601A0915701B091580158
S11302A00196A11DB11D8093550190935601A09311
S11302B05701B09358019BB180E189278BB9BF9155
S11302C0AF919F918F910F900FBE0F901F90189533
S11302D0CF92DF92EF92FF920F931F93CF93DF930E
S11302E0CDB7DEB768970FB6F894DEBF0FBECDBFAB
S11302F087E0898386E08A8385E08B8384E08C832E
S113030083E08D8382E08E8381E08F83188680E191
S1130310E0E0F1E0DE01199601900D928A95E1F793
S11303208E010F5F1F4FA0E0B0E0CC24C394D12C0A
S11303307D01F801C601019002C0880F991F0A943B
S1130340E2F78F01809585B98FE39CE90197F1F776
S113035000C0000023B130E0C9010D8002C09595B2
S113036087950A94E2F7BC016170772780FF0EC07D
S1130370FE01369681E090E0BC01A901019002C023
S1130380559547950A94E2F740FD0FC0EE0CFF1C0B
S1130390EE0CFF1CE1E0F0E0EC0FFD1FEE0EFF1E83
S11303A0F701E60FF71F808509C001968430910597
S11303B019F71196A430B10509F0BACF68960FB6B3
S11303C0F894DEBF0FBECDBFDF91CF911F910F9187
S11303D0FF90EF90DF90CF900895CF93DF93CDB748
S11303E0DEB72B970FB6F894DEBF0FBECDBFE7E4A0
S11303F0F1E08BE990E0918780871386128682E092
S113040083831586148680EF84B9A0EBB0E08C91C9
S113041082608C9384E08093B300A1EBB0E08C9174
S113042087608C93F0936201E093610188E180938B
S1130430C10086E08093C2001092C5008FEC8093C7
S1130440C400E0ECF0E0808185FFFDCF06EC10E015
S113045086E1F80180830F2EF1E1FF2EF02DF0826A
S1130460CE0101960E94A500CE0106960E94B1001D
S1130470FFEF29E688E1F15020408040E1F700C019
S1130480000078948091C0008CE0F80180838FE0B4
S113049097E20197F1F700C00000F08280E191E05B
S11304A09F938F930E948A030F900F90AA24A39482
S11304B0B12C00EC10E00F2EF6ECEF2EF12CF02D09
S11304C00F2EFCE02F2EF02D0F2EF1E13F2EF02DFC
S11304D00F2EFBE28F2EF1E09F2EF02D0F2E412CDC
S11304E0512CF8E96F2EF1E47F2EF02DB99BFECF4D
S11304F043B133B193B123B150E040955095BA0163
S113050060717727432F50E04095509540725527EE
S1130510462B572B892F90E08095909580749927CE
S1130520842B952B30E02095309520783327822B2F
S1130530932B892B71F0809146018F5F8093460144
S1130540843048F0B0925E01A0925D0110924601A1
S113055002C01092460180915D0190915E01892B49
S113056009F4CFC010925E0110925D010E946801EF
S1130570C82ED12C90E0FC01B397E232F10508F0CB
S1130580C0C0E65AFF4F0C94840341E060E079E177
S1130590CE0106960E94D100FFEF21EE84E0F150D7
S11305A020408040E1F700C00000F801808185FF11
S11305B0FCCFF70120828FE097E20197F1F700C0AA
S11305C00000308289E191E09F938F930E948A0317
S11305D00F900F9096C0F801808185FFFCCFF70142
S11305E020828FE097E20197F1F700C0000030828B
S11305F09F928F920E948A03C6010E94A003FFE784
S113060028E381E0F15020408040E1F700C0000081
S11306100F900F9076C094E095BDEFEFF1EE24E0DB
S1130620E150F0402040E1F700C000004092590141
S113063050925A0160925B0170925C0180E387BD25
S11306409FEFE1EEF4E09150E040F040E1F700C0AC
S1130650000015BC8BB18BB9F801808185FFFCCFFC
S1130660F70120828FE097E20197F1F700C00000C4
S1130670308286E391E09F938F930E948A030F90C8
S11306800F903FC0F801808185FFFCCFF7012082E5
S11306908FE097E20197F1F700C0000030829F924B
S11306A08F920E948A03C6010E94A003FFE728E3F9
S11306B081E0F15020408040E1F700C000000F903D
S11306C00F901FC0F801808185FFFCCFF7012082C5
S11306D08FE097E20197F1F700C0000030829F920B
S11306E08F920E948A03C6010E94A003FFE728E3B9
S11306F081E0F15020408040E1F700C000000F90FD
S11307000F9082E087BBF2CEEE0FFF1F0590F491AD
S1130710E02D0994A0E0B0E0E0E9F3E00C94480691
S1130720AE014B5F5F4FFA0161917191AF0180910E
S11307306101909162010E94A703E2E00C946406B7
S113074060916101709162010E949E050895ABE081
S1130750B0E0EDEAF3E00C9438066C017B018A0109
S1130760FC0117821682838181FFCCC1CE010196E0
S11307703C01F6019381F70193FD859193FF8191EB
S11307807F01882309F4BAC1853239F493FD859138
S113079093FF81917F01853229F4B60190E00E9494
S11307A09E05E7CF912C212C312CFFE1F315D8F0D5
S11307B08B3279F038F4803279F08332A1F4232D2E
S11307C020611DC08D3261F0803369F4232D2160D6
S11307D016C0832D8260382EE32DE4603E2E2AC09D
S11307E0F32DF8601DC037FC2DC020ED280F2A30F2
S11307F040F08E32B9F436FC81C1232D2064322EB0
S113080019C036FE06C08AE0989E200D1124922E4F
S113081011C0EAE02E9E200D1124222EF32DF06249
S11308203F2E08C08C3621F4832D8068382E02C0F8
S1130830883641F4F70193FD859193FF81917F01FF
S11308408111B3CF982F9F7D9554933028F40C5F7A
S11308501F4F9FE399830DC0833631F0833771F0C6
S1130860833509F059C021C0F801808189830E5F66
S11308701F4F88248394912C530113C02801F2E064
S11308804F0E511CF801A080B18036FE03C0692DC3
S113089070E002C06FEF7FEFC5010E9493054C0129
S11308A08201F32DFF773F2E16C0280122E0420E6D
S11308B0511CF801A080B18036FE03C0692D70E0A0
S11308C002C06FEF7FEFC5010E9488054C01F32D34
S11308D0F0683F2E820133FC1BC0822D90E0881605
S11308E09906B0F4B60180E290E00E949E052A9435
S11308F0F4CFF50137FC859137FE81915F01B60194
S113090090E00E949E0521102A9421E0821A910809
S11309108114910471F7E8C0843611F0893641F5E9
S1130920F80137FE07C060817181828193810C5F79
S11309301F4F08C060817181072E000C880B990B32
S11309400E5F1F4FF32DFF763F2E97FF09C0909542
S11309508095709561957F4F8F4F9F4FF0683F2E24
S11309602AE030E0A3010E94DA05882E861845C0EB
S1130970853731F4232D2F7EB22E2AE030E025C0B6
S1130980932D997FB92E8F36C1F018F4883579F0FC
S1130990B5C0803719F0883721F0B0C0E92FE06185
S11309A0BE2EB4FE0DC0FB2DF460BF2E09C034FE74
S11309B00AC0292F2660B22E06C028E030E005C008
S11309C020E130E002C020E132E0F801B7FE07C0C8
S11309D060817181828193810C5F1F4F06C06081A9
S11309E0718180E090E00E5F1F4FA3010E94DA0541
S11309F0882E8618FB2DFF773F2E36FE0DC0232D43
S1130A002E7FA22E891458F434FE0BC032FC09C088
S1130A10832D8E7EA82E05C0B82CA32C03C0B82C21
S1130A2001C0B92CA4FE0FC0FE01E80DF11D8081A8
S1130A30803321F49A2D997EA92E09C0A2FE06C006
S1130A40B394B39404C08A2D867809F0B394A3FCBC
S1130A5011C0A0FE06C0B21488F4280C922C9B1876
S1130A600EC0B21460F4B60180E290E00E949E05CC
S1130A70B394F7CFB21418F42B1802C0982C212C7D
S1130A80A4FE10C0B60180E390E00E949E05A2FE81
S1130A9017C0A1FC03C088E790E002C088E590E09D
S1130AA0B6010CC08A2D867859F0A1FE02C08BE2F3
S1130AB001C080E2A7FC8DE2B60190E00E949E0591
S1130AC0891438F4B60180E390E00E949E059A945C
S1130AD0F7CF8A94F301E80DF11D8081B60190E00F
S1130AE00E949E058110F5CF222009F442CEB60162
S1130AF080E290E00E949E052A94F6CFF60186815A
S1130B00978102C08FEF9FEF2B96E2E10C9454067D
S1130B10FC010590615070400110D8F780959095C4
S1130B208E0F9F1F0895FC016150704001900110C9
S1130B30D8F7809590958E0F9F1F08950F931F935C
S1130B40CF93DF93FB01238121FD03C08FEF9FEF40
S1130B502CC022FF16C0468157812481358142175B
S1130B60530744F4A081B1819D012F5F3F4F31832E
S1130B7020838C93268137812F5F3F4F37832683D1
S1130B8014C08B01EC01FB010084F185E02D099573
S1130B90892BE1F6D80116968D919C9117970196B1
S1130BA017969C938E931697CE01DF91CF911F9148
S1130BB00F910895FA01AA27283051F1203181F1CB
S1130BC0E8946F936E7F6E5F7F4F8F4F9F4FAF4F51
S1130BD0B1E03ED0B4E03CD0670F781F891F9A1F64
S1130BE0A11D680F791F8A1F911DA11D6A0F711D18
S1130BF0811D911DA11D20D009F468943F912AE024
S1130C00269F11243019305D3193DEF6CF0108950B
S1130C10462F4770405D4193B3E00FD0C9F7F6CF3C
S1130C20462F4F70405D4A3318F0495D31FD405204
S1130C30419302D0A9F7EACFB4E0A695979587959A
S1130C4077956795BA95C9F7009761057105089579
S1130C509B01AC010A2E0694579547953795279525
S1130C60BA95C9F7620F731F841F951FA01D0895BD
S1130C702F923F924F925F926F927F928F929F92A8
S1130C80AF92BF92CF92DF92EF92FF920F931F9396
S1130C90CF93DF93CDB7DEB7CA1BDB0B0FB6F89447
S1130CA0DEBF0FBECDBF09942A88398848885F8487
S1130CB06E847D848C849B84AA84B984C884DF80F8
S1130CC0EE80FD800C811B81AA81B981CE0FD11DDC
S1130CD00FB6F894DEBF0FBECDBFED010895F894B2
S1050CE0FFCF40
S1130CE23132334134353642373839432A3023449A
S1130CF257656C636F6D652100526F746174696E20
S1130D0267205374657070657221005468652023EE
S1130D122069733A0D00526F746174696E672053CF
S1090D226572766F2100EA
S9030000FC
